{
  "_format": "hh-sol-artifact-1",
  "contractName": "YoursFactory",
  "sourceName": "contracts/YoursFactory.sol",
  "abi": [
    {
      "inputs": [
        {
          "internalType": "address",
          "name": "_base",
          "type": "address"
        }
      ],
      "stateMutability": "nonpayable",
      "type": "constructor"
    },
    {
      "anonymous": false,
      "inputs": [
        {
          "indexed": false,
          "internalType": "address",
          "name": "_newClone",
          "type": "address"
        },
        {
          "indexed": false,
          "internalType": "address",
          "name": "_owner",
          "type": "address"
        }
      ],
      "name": "DeployNFT",
      "type": "event"
    },
    {
      "anonymous": false,
      "inputs": [
        {
          "indexed": false,
          "internalType": "address",
          "name": "nftAddress",
          "type": "address"
        },
        {
          "indexed": false,
          "internalType": "uint256",
          "name": "id",
          "type": "uint256"
        }
      ],
      "name": "test",
      "type": "event"
    },
    {
      "inputs": [],
      "name": "baseContract",
      "outputs": [
        {
          "internalType": "address",
          "name": "",
          "type": "address"
        }
      ],
      "stateMutability": "view",
      "type": "function"
    },
    {
      "inputs": [
        {
          "internalType": "string",
          "name": "_name",
          "type": "string"
        },
        {
          "internalType": "string",
          "name": "_symbol",
          "type": "string"
        },
        {
          "internalType": "string",
          "name": "_uri",
          "type": "string"
        },
        {
          "internalType": "string",
          "name": "_benefitURI",
          "type": "string"
        },
        {
          "internalType": "uint128[]",
          "name": "_defaultBenefit",
          "type": "uint128[]"
        }
      ],
      "name": "deployNFT",
      "outputs": [],
      "stateMutability": "nonpayable",
      "type": "function"
    },
    {
      "inputs": [],
      "name": "isPaused",
      "outputs": [
        {
          "internalType": "uint256",
          "name": "",
          "type": "uint256"
        }
      ],
      "stateMutability": "view",
      "type": "function"
    },
    {
      "inputs": [
        {
          "internalType": "uint256",
          "name": "",
          "type": "uint256"
        }
      ],
      "name": "nfts",
      "outputs": [
        {
          "internalType": "address",
          "name": "creator",
          "type": "address"
        },
        {
          "internalType": "address",
          "name": "nftAddress",
          "type": "address"
        }
      ],
      "stateMutability": "view",
      "type": "function"
    },
    {
      "inputs": [],
      "name": "owner",
      "outputs": [
        {
          "internalType": "address",
          "name": "",
          "type": "address"
        }
      ],
      "stateMutability": "view",
      "type": "function"
    },
    {
      "inputs": [
        {
          "internalType": "address",
          "name": "_newAdd",
          "type": "address"
        }
      ],
      "name": "setBase",
      "outputs": [],
      "stateMutability": "nonpayable",
      "type": "function"
    },
    {
      "inputs": [
        {
          "internalType": "address",
          "name": "_newAdd",
          "type": "address"
        }
      ],
      "name": "setOwner",
      "outputs": [],
      "stateMutability": "nonpayable",
      "type": "function"
    },
    {
      "inputs": [],
      "name": "setPaused",
      "outputs": [],
      "stateMutability": "nonpayable",
      "type": "function"
    }
  ],
  "bytecode": "0x608060405234801561001057600080fd5b506040516200108b3803806200108b83398181016040528101906100349190610126565b336000806101000a81548173ffffffffffffffffffffffffffffffffffffffff021916908373ffffffffffffffffffffffffffffffffffffffff16021790555080600160006101000a81548173ffffffffffffffffffffffffffffffffffffffff021916908373ffffffffffffffffffffffffffffffffffffffff160217905550600060028190555050610153565b600080fd5b600073ffffffffffffffffffffffffffffffffffffffff82169050919050565b60006100f3826100c8565b9050919050565b610103816100e8565b811461010e57600080fd5b50565b600081519050610120816100fa565b92915050565b60006020828403121561013c5761013b6100c3565b5b600061014a84828501610111565b91505092915050565b610f2880620001636000396000f3fe608060405234801561001057600080fd5b50600436106100885760003560e01c80635b32619c1161005b5780635b32619c146101005780638da5cb5b1461011e578063b187bd261461013c578063be17fe621461015a57610088565b806303aac2bf1461008d57806313af4035146100a9578063265aa621146100c557806337a66d85146100f6575b600080fd5b6100a760048036038101906100a29190610904565b610176565b005b6100c360048036038101906100be9190610a69565b6103a9565b005b6100df60048036038101906100da9190610acc565b6103f4565b6040516100ed929190610b08565b60405180910390f35b6100fe610458565b005b6101086104a0565b6040516101159190610b31565b60405180910390f35b6101266104c6565b6040516101339190610b31565b60405180910390f35b6101446104ea565b6040516101519190610b5b565b60405180910390f35b610174600480360381019061016f9190610a69565b610504565b005b6000600160149054906101000a900460ff1660ff16146101cb576040517f08c379a00000000000000000000000000000000000000000000000000000000081526004016101c290610bd3565b60405180910390fd5b60006101f8600160009054906101000a900473ffffffffffffffffffffffffffffffffffffffff16610550565b905060405180604001604052803373ffffffffffffffffffffffffffffffffffffffff1681526020018273ffffffffffffffffffffffffffffffffffffffff168152506003600060026000815461024e90610c22565b919050819055815260200190815260200160002060008201518160000160006101000a81548173ffffffffffffffffffffffffffffffffffffffff021916908373ffffffffffffffffffffffffffffffffffffffff16021790555060208201518160010160006101000a81548173ffffffffffffffffffffffffffffffffffffffff021916908373ffffffffffffffffffffffffffffffffffffffff1602179055509050508073ffffffffffffffffffffffffffffffffffffffff16632e5a55c93388888888886040518763ffffffff1660e01b815260040161033696959493929190610d96565b600060405180830381600087803b15801561035057600080fd5b505af1158015610364573d6000803e3d6000fd5b505050507f8abf7cfa8fefb4d85e1fee7597b1e9a2c02eb2d678393fc13f20fd3175cb62928133604051610399929190610b08565b60405180910390a1505050505050565b6103b161060a565b806000806101000a81548173ffffffffffffffffffffffffffffffffffffffff021916908373ffffffffffffffffffffffffffffffffffffffff16021790555050565b60036020528060005260406000206000915090508060000160009054906101000a900473ffffffffffffffffffffffffffffffffffffffff16908060010160009054906101000a900473ffffffffffffffffffffffffffffffffffffffff16905082565b61046061060a565b6000600160149054906101000a900460ff1660ff1614610481576000610484565b60015b600160146101000a81548160ff021916908360ff160217905550565b600160009054906101000a900473ffffffffffffffffffffffffffffffffffffffff1681565b60008054906101000a900473ffffffffffffffffffffffffffffffffffffffff1681565b6000600160149054906101000a900460ff1660ff16905090565b61050c61060a565b80600160006101000a81548173ffffffffffffffffffffffffffffffffffffffff021916908373ffffffffffffffffffffffffffffffffffffffff16021790555050565b6000763d602d80600a3d3981f3363d3d373d3d3d363d730000008260601b60e81c176000526e5af43d82803e903d91602b57fd5bf38260781b17602052603760096000f09050600073ffffffffffffffffffffffffffffffffffffffff168173ffffffffffffffffffffffffffffffffffffffff1603610605576040517f08c379a00000000000000000000000000000000000000000000000000000000081526004016105fc90610e66565b60405180910390fd5b919050565b3373ffffffffffffffffffffffffffffffffffffffff1660008054906101000a900473ffffffffffffffffffffffffffffffffffffffff1673ffffffffffffffffffffffffffffffffffffffff1614610698576040517f08c379a000000000000000000000000000000000000000000000000000000000815260040161068f90610ed2565b60405180910390fd5b565b6000604051905090565b600080fd5b600080fd5b600080fd5b600080fd5b6000601f19601f8301169050919050565b7f4e487b7100000000000000000000000000000000000000000000000000000000600052604160045260246000fd5b610701826106b8565b810181811067ffffffffffffffff821117156107205761071f6106c9565b5b80604052505050565b600061073361069a565b905061073f82826106f8565b919050565b600067ffffffffffffffff82111561075f5761075e6106c9565b5b610768826106b8565b9050602081019050919050565b82818337600083830152505050565b600061079761079284610744565b610729565b9050828152602081018484840111156107b3576107b26106b3565b5b6107be848285610775565b509392505050565b600082601f8301126107db576107da6106ae565b5b81356107eb848260208601610784565b91505092915050565b600067ffffffffffffffff82111561080f5761080e6106c9565b5b602082029050602081019050919050565b600080fd5b60006fffffffffffffffffffffffffffffffff82169050919050565b61084a81610825565b811461085557600080fd5b50565b60008135905061086781610841565b92915050565b600061088061087b846107f4565b610729565b905080838252602082019050602084028301858111156108a3576108a2610820565b5b835b818110156108cc57806108b88882610858565b8452602084019350506020810190506108a5565b5050509392505050565b600082601f8301126108eb576108ea6106ae565b5b81356108fb84826020860161086d565b91505092915050565b600080600080600060a086880312156109205761091f6106a4565b5b600086013567ffffffffffffffff81111561093e5761093d6106a9565b5b61094a888289016107c6565b955050602086013567ffffffffffffffff81111561096b5761096a6106a9565b5b610977888289016107c6565b945050604086013567ffffffffffffffff811115610998576109976106a9565b5b6109a4888289016107c6565b935050606086013567ffffffffffffffff8111156109c5576109c46106a9565b5b6109d1888289016107c6565b925050608086013567ffffffffffffffff8111156109f2576109f16106a9565b5b6109fe888289016108d6565b9150509295509295909350565b600073ffffffffffffffffffffffffffffffffffffffff82169050919050565b6000610a3682610a0b565b9050919050565b610a4681610a2b565b8114610a5157600080fd5b50565b600081359050610a6381610a3d565b92915050565b600060208284031215610a7f57610a7e6106a4565b5b6000610a8d84828501610a54565b91505092915050565b6000819050919050565b610aa981610a96565b8114610ab457600080fd5b50565b600081359050610ac681610aa0565b92915050565b600060208284031215610ae257610ae16106a4565b5b6000610af084828501610ab7565b91505092915050565b610b0281610a2b565b82525050565b6000604082019050610b1d6000830185610af9565b610b2a6020830184610af9565b9392505050565b6000602082019050610b466000830184610af9565b92915050565b610b5581610a96565b82525050565b6000602082019050610b706000830184610b4c565b92915050565b600082825260208201905092915050565b7f436f6e7472616374206973207061757365640000000000000000000000000000600082015250565b6000610bbd601283610b76565b9150610bc882610b87565b602082019050919050565b60006020820190508181036000830152610bec81610bb0565b9050919050565b7f4e487b7100000000000000000000000000000000000000000000000000000000600052601160045260246000fd5b6000610c2d82610a96565b91507fffffffffffffffffffffffffffffffffffffffffffffffffffffffffffffffff8203610c5f57610c5e610bf3565b5b600182019050919050565b600081519050919050565b60005b83811015610c93578082015181840152602081019050610c78565b60008484015250505050565b6000610caa82610c6a565b610cb48185610b76565b9350610cc4818560208601610c75565b610ccd816106b8565b840191505092915050565b600081519050919050565b600082825260208201905092915050565b6000819050602082019050919050565b610d0d81610825565b82525050565b6000610d1f8383610d04565b60208301905092915050565b6000602082019050919050565b6000610d4382610cd8565b610d4d8185610ce3565b9350610d5883610cf4565b8060005b83811015610d89578151610d708882610d13565b9750610d7b83610d2b565b925050600181019050610d5c565b5085935050505092915050565b600060c082019050610dab6000830189610af9565b8181036020830152610dbd8188610c9f565b90508181036040830152610dd18187610c9f565b90508181036060830152610de58186610c9f565b90508181036080830152610df98185610c9f565b905081810360a0830152610e0d8184610d38565b9050979650505050505050565b7f455243313136373a20637265617465206661696c656400000000000000000000600082015250565b6000610e50601683610b76565b9150610e5b82610e1a565b602082019050919050565b60006020820190508181036000830152610e7f81610e43565b9050919050565b7f4e6f74204f776e65720000000000000000000000000000000000000000000000600082015250565b6000610ebc600983610b76565b9150610ec782610e86565b602082019050919050565b60006020820190508181036000830152610eeb81610eaf565b905091905056fea26469706673582212208e94fea9af4bad3969ad9dc4e50ca262d1a6f834106257ce6ee142c2b4aac22c64736f6c63430008110033",
  "linkReferences": {},
  "deployedLinkReferences": {}
}